{
  "contractName": "HodlFraud",
  "abi": [
    {
      "inputs": [],
      "payable": true,
      "stateMutability": "payable",
      "type": "constructor"
    },
    {
      "constant": false,
      "inputs": [
        {
          "name": "holdTime",
          "type": "uint256"
        }
      ],
      "name": "payIn",
      "outputs": [],
      "payable": true,
      "stateMutability": "payable",
      "type": "function"
    },
    {
      "constant": false,
      "inputs": [],
      "name": "withdraw",
      "outputs": [],
      "payable": false,
      "stateMutability": "nonpayable",
      "type": "function"
    },
    {
      "constant": false,
      "inputs": [],
      "name": "ownerWithdrawal",
      "outputs": [],
      "payable": false,
      "stateMutability": "nonpayable",
      "type": "function"
    },
    {
      "constant": false,
      "inputs": [
        {
          "name": "hodler",
          "type": "address"
        }
      ],
      "name": "balanceOf",
      "outputs": [
        {
          "name": "",
          "type": "uint256"
        }
      ],
      "payable": false,
      "stateMutability": "nonpayable",
      "type": "function"
    }
  ],
  "bytecode": "0x606060405233600260006101000a81548173ffffffffffffffffffffffffffffffffffffffff021916908373ffffffffffffffffffffffffffffffffffffffff160217905550346000819055506104268061005b6000396000f300606060405260043610610062576000357c0100000000000000000000000000000000000000000000000000000000900463ffffffff1680633ccfd60b1461006757806370a082311461007c578063df78c1dd146100c9578063f27a0447146100e1575b600080fd5b341561007257600080fd5b61007a6100f6565b005b341561008757600080fd5b6100b3600480803573ffffffffffffffffffffffffffffffffffffffff16906020019091905050610272565b6040518082815260200191505060405180910390f35b6100df60048080359060200190919050506102be565b005b34156100ec57600080fd5b6100f4610346565b005b42600360003373ffffffffffffffffffffffffffffffffffffffff1673ffffffffffffffffffffffffffffffffffffffff1681526020019081526020016000206001015410801561018957506000600360003373ffffffffffffffffffffffffffffffffffffffff1673ffffffffffffffffffffffffffffffffffffffff16815260200190815260200160002060000154115b151561019457600080fd5b3373ffffffffffffffffffffffffffffffffffffffff166108fc600360003373ffffffffffffffffffffffffffffffffffffffff1673ffffffffffffffffffffffffffffffffffffffff168152602001908152602001600020600001549081150290604051600060405180830381858888f19350505050151561021657600080fd5b6000600360003373ffffffffffffffffffffffffffffffffffffffff1673ffffffffffffffffffffffffffffffffffffffff16815260200190815260200160002060000181905550600160008154809291906001019190505550565b6000600360008373ffffffffffffffffffffffffffffffffffffffff1673ffffffffffffffffffffffffffffffffffffffff168152602001908152602001600020600001549050919050565b600080341115156102ce57600080fd5b348160000160008282540192505081905550814201816001018190555080600360003373ffffffffffffffffffffffffffffffffffffffff1673ffffffffffffffffffffffffffffffffffffffff16815260200190815260200160002060008201548160000155600182015481600101559050505050565b600260009054906101000a900473ffffffffffffffffffffffffffffffffffffffff1673ffffffffffffffffffffffffffffffffffffffff163373ffffffffffffffffffffffffffffffffffffffff161480156103a4575060008054115b15156103af57600080fd5b3373ffffffffffffffffffffffffffffffffffffffff166108fc6000549081150290604051600060405180830381858888f1935050505015156103f157600080fd5b600080819055505600a165627a7a72305820bb3f09685f88176608df0344c9f814d5526e02e9ed3c60c6cee68a1e92de6ec60029",
  "source": "pragma solidity ^0.4.18;\n\ncontract HodlFraud {\n    uint ownerAmount;\n    uint numberOfPayouts;\n    address owner;\n\n    struct HoldRecord {\n        uint amount;\n        uint unlockTime;\n    }\n\n    mapping (address => HoldRecord) balance;\n\n    function HodlFraud() public payable {\n        owner = msg.sender;\n        ownerAmount = msg.value;\n    }\n\n    function payIn(uint holdTime) public payable {\n        require(msg.value > 0);\n        HoldRecord newRecord;\n        newRecord.amount += msg.value;\n        newRecord.unlockTime = now + holdTime;\n        balance[msg.sender] = newRecord;\n    }\n\n    function withdraw() public {\n        require(balance[msg.sender].unlockTime < now && balance[msg.sender].amount > 0);\n        msg.sender.transfer(balance[msg.sender].amount);\n        balance[msg.sender].amount = 0;\n        numberOfPayouts++;\n    }\n\n    function ownerWithdrawal() public {\n        require(msg.sender == owner && ownerAmount > 0);\n        msg.sender.transfer(ownerAmount);\n        ownerAmount = 0;\n    }\n\n    // additions for simpler testing\n    function balanceOf(address hodler) public returns (uint) {\n      return balance[hodler].amount;\n    }\n}\n",
  "sourcePath": "/home/sven/git/eth/hodl-fraud/contracts/HodlFraud.sol",
  "compiler": {
    "name": "solc",
    "version": "0.4.19+commit.c4cbbb05.Emscripten.clang"
  },
  "schemaVersion": "2.0.0",
  "updatedAt": "2018-02-28T12:06:14.554Z"
}